{
  "_format": "hh-sol-artifact-1",
  "contractName": "SIC",
  "sourceName": "contracts/SIC.sol",
  "abi": [
    {
      "inputs": [],
      "stateMutability": "nonpayable",
      "type": "constructor"
    },
    {
      "anonymous": false,
      "inputs": [
        {
          "indexed": true,
          "internalType": "address",
          "name": "previousOwner",
          "type": "address"
        },
        {
          "indexed": true,
          "internalType": "address",
          "name": "newOwner",
          "type": "address"
        }
      ],
      "name": "OwnershipTransferred",
      "type": "event"
    },
    {
      "inputs": [],
      "name": "getSignatures",
      "outputs": [
        {
          "internalType": "bytes[]",
          "name": "",
          "type": "bytes[]"
        }
      ],
      "stateMutability": "view",
      "type": "function"
    },
    {
      "inputs": [
        {
          "internalType": "bytes",
          "name": "sig",
          "type": "bytes"
        },
        {
          "internalType": "string",
          "name": "metadata",
          "type": "string"
        }
      ],
      "name": "mint",
      "outputs": [],
      "stateMutability": "nonpayable",
      "type": "function"
    },
    {
      "inputs": [],
      "name": "owner",
      "outputs": [
        {
          "internalType": "address",
          "name": "",
          "type": "address"
        }
      ],
      "stateMutability": "view",
      "type": "function"
    },
    {
      "inputs": [
        {
          "internalType": "bytes",
          "name": "sig",
          "type": "bytes"
        },
        {
          "internalType": "string",
          "name": "metadata",
          "type": "string"
        }
      ],
      "name": "receiveToken",
      "outputs": [],
      "stateMutability": "nonpayable",
      "type": "function"
    },
    {
      "inputs": [],
      "name": "renounceOwnership",
      "outputs": [],
      "stateMutability": "nonpayable",
      "type": "function"
    },
    {
      "inputs": [
        {
          "internalType": "bytes",
          "name": "sig",
          "type": "bytes"
        }
      ],
      "name": "tokenURI",
      "outputs": [
        {
          "internalType": "string",
          "name": "",
          "type": "string"
        }
      ],
      "stateMutability": "view",
      "type": "function"
    },
    {
      "inputs": [
        {
          "internalType": "bytes",
          "name": "sig",
          "type": "bytes"
        },
        {
          "internalType": "address",
          "name": "destSmartContract",
          "type": "address"
        }
      ],
      "name": "transfer",
      "outputs": [],
      "stateMutability": "nonpayable",
      "type": "function"
    },
    {
      "inputs": [
        {
          "internalType": "address",
          "name": "newOwner",
          "type": "address"
        }
      ],
      "name": "transferOwnership",
      "outputs": [],
      "stateMutability": "nonpayable",
      "type": "function"
    }
  ],
  "bytecode": "0x608060405234801561001057600080fd5b5061002d61002261003260201b60201c565b61003a60201b60201c565b6100fe565b600033905090565b60008060009054906101000a900473ffffffffffffffffffffffffffffffffffffffff169050816000806101000a81548173ffffffffffffffffffffffffffffffffffffffff021916908373ffffffffffffffffffffffffffffffffffffffff1602179055508173ffffffffffffffffffffffffffffffffffffffff168173ffffffffffffffffffffffffffffffffffffffff167f8be0079c531659141344cd1fd0a4f28419497f9722a3daafe3b4186f6b6457e060405160405180910390a35050565b6117028061010d6000396000f3fe608060405234801561001057600080fd5b50600436106100885760003560e01c80638da5cb5b1161005b5780638da5cb5b146100ff578063ad6f80ff1461011d578063bba1b1cd1461013b578063f2fde38b1461015757610088565b80630fb014541461008d5780632b1ccc9a146100bd578063607154bf146100d9578063715018a6146100f5575b600080fd5b6100a760048036038101906100a291906109e2565b610173565b6040516100b49190610aaa565b60405180910390f35b6100d760048036038101906100d29190610b6d565b610223565b005b6100f360048036038101906100ee9190610b6d565b610290565b005b6100fd6102c0565b005b6101076102d4565b6040516101149190610c26565b60405180910390f35b6101256102fd565b6040516101329190610d58565b60405180910390f35b61015560048036038101906101509190610da6565b6103d6565b005b610171600480360381019061016c9190610e02565b61061e565b005b60606001826040516101859190610e6b565b9081526020016040518091039020805461019e90610eb1565b80601f01602080910402602001604051908101604052809291908181526020018280546101ca90610eb1565b80156102175780601f106101ec57610100808354040283529160200191610217565b820191906000526020600020905b8154815290600101906020018083116101fa57829003601f168201915b50505050509050919050565b61022b6106a1565b8060018360405161023c9190610e6b565b908152602001604051809103902090816102569190611098565b5060028290806001815401808255809150506001900390600052602060002001600090919091909150908161028b91906111c5565b505050565b806001836040516102a19190610e6b565b908152602001604051809103902090816102bb9190611098565b505050565b6102c86106a1565b6102d2600061071f565b565b60008060009054906101000a900473ffffffffffffffffffffffffffffffffffffffff16905090565b60606002805480602002602001604051908101604052809291908181526020016000905b828210156103cd57838290600052602060002001805461034090610eb1565b80601f016020809104026020016040519081016040528092919081815260200182805461036c90610eb1565b80156103b95780601f1061038e576101008083540402835291602001916103b9565b820191906000526020600020905b81548152906001019060200180831161039c57829003601f168201915b505050505081526020019060010190610321565b50505050905090565b6103de6106a1565b600081905060006001846040516103f59190610e6b565b9081526020016040518091039020805461040e90610eb1565b80601f016020809104026020016040519081016040528092919081815260200182805461043a90610eb1565b80156104875780601f1061045c57610100808354040283529160200191610487565b820191906000526020600020905b81548152906001019060200180831161046a57829003601f168201915b5050505050905060018460405161049e9190610e6b565b908152602001604051809103902060006104b891906107eb565b60005b60028054905081101561057a578480519060200120600282815481106104e4576104e3611297565b5b906000526020600020016040516104fb9190611349565b604051809103902003610567576002600160028054905061051c919061138f565b8154811061052d5761052c611297565b5b906000526020600020016002828154811061054b5761054a611297565b5b90600052602060002001908161056191906113ee565b5061057a565b8080610572906114d6565b9150506104bb565b50600280548061058d5761058c61151e565b5b6001900381819060005260206000200160006105a9919061082b565b90558173ffffffffffffffffffffffffffffffffffffffff1663607154bf85836040518363ffffffff1660e01b81526004016105e6929190611597565b600060405180830381600087803b15801561060057600080fd5b505af1158015610614573d6000803e3d6000fd5b5050505050505050565b6106266106a1565b600073ffffffffffffffffffffffffffffffffffffffff168173ffffffffffffffffffffffffffffffffffffffff1603610695576040517f08c379a000000000000000000000000000000000000000000000000000000000815260040161068c90611640565b60405180910390fd5b61069e8161071f565b50565b6106a96107e3565b73ffffffffffffffffffffffffffffffffffffffff166106c76102d4565b73ffffffffffffffffffffffffffffffffffffffff161461071d576040517f08c379a0000000000000000000000000000000000000000000000000000000008152600401610714906116ac565b60405180910390fd5b565b60008060009054906101000a900473ffffffffffffffffffffffffffffffffffffffff169050816000806101000a81548173ffffffffffffffffffffffffffffffffffffffff021916908373ffffffffffffffffffffffffffffffffffffffff1602179055508173ffffffffffffffffffffffffffffffffffffffff168173ffffffffffffffffffffffffffffffffffffffff167f8be0079c531659141344cd1fd0a4f28419497f9722a3daafe3b4186f6b6457e060405160405180910390a35050565b600033905090565b5080546107f790610eb1565b6000825580601f106108095750610828565b601f016020900490600052602060002090810190610827919061086b565b5b50565b50805461083790610eb1565b6000825580601f106108495750610868565b601f016020900490600052602060002090810190610867919061086b565b5b50565b5b8082111561088457600081600090555060010161086c565b5090565b6000604051905090565b600080fd5b600080fd5b600080fd5b600080fd5b6000601f19601f8301169050919050565b7f4e487b7100000000000000000000000000000000000000000000000000000000600052604160045260246000fd5b6108ef826108a6565b810181811067ffffffffffffffff8211171561090e5761090d6108b7565b5b80604052505050565b6000610921610888565b905061092d82826108e6565b919050565b600067ffffffffffffffff82111561094d5761094c6108b7565b5b610956826108a6565b9050602081019050919050565b82818337600083830152505050565b600061098561098084610932565b610917565b9050828152602081018484840111156109a1576109a06108a1565b5b6109ac848285610963565b509392505050565b600082601f8301126109c9576109c861089c565b5b81356109d9848260208601610972565b91505092915050565b6000602082840312156109f8576109f7610892565b5b600082013567ffffffffffffffff811115610a1657610a15610897565b5b610a22848285016109b4565b91505092915050565b600081519050919050565b600082825260208201905092915050565b60005b83811015610a65578082015181840152602081019050610a4a565b60008484015250505050565b6000610a7c82610a2b565b610a868185610a36565b9350610a96818560208601610a47565b610a9f816108a6565b840191505092915050565b60006020820190508181036000830152610ac48184610a71565b905092915050565b600067ffffffffffffffff821115610ae757610ae66108b7565b5b610af0826108a6565b9050602081019050919050565b6000610b10610b0b84610acc565b610917565b905082815260208101848484011115610b2c57610b2b6108a1565b5b610b37848285610963565b509392505050565b600082601f830112610b5457610b5361089c565b5b8135610b64848260208601610afd565b91505092915050565b60008060408385031215610b8457610b83610892565b5b600083013567ffffffffffffffff811115610ba257610ba1610897565b5b610bae858286016109b4565b925050602083013567ffffffffffffffff811115610bcf57610bce610897565b5b610bdb85828601610b3f565b9150509250929050565b600073ffffffffffffffffffffffffffffffffffffffff82169050919050565b6000610c1082610be5565b9050919050565b610c2081610c05565b82525050565b6000602082019050610c3b6000830184610c17565b92915050565b600081519050919050565b600082825260208201905092915050565b6000819050602082019050919050565b600081519050919050565b600082825260208201905092915050565b6000610c9482610c6d565b610c9e8185610c78565b9350610cae818560208601610a47565b610cb7816108a6565b840191505092915050565b6000610cce8383610c89565b905092915050565b6000602082019050919050565b6000610cee82610c41565b610cf88185610c4c565b935083602082028501610d0a85610c5d565b8060005b85811015610d465784840389528151610d278582610cc2565b9450610d3283610cd6565b925060208a01995050600181019050610d0e565b50829750879550505050505092915050565b60006020820190508181036000830152610d728184610ce3565b905092915050565b610d8381610c05565b8114610d8e57600080fd5b50565b600081359050610da081610d7a565b92915050565b60008060408385031215610dbd57610dbc610892565b5b600083013567ffffffffffffffff811115610ddb57610dda610897565b5b610de7858286016109b4565b9250506020610df885828601610d91565b9150509250929050565b600060208284031215610e1857610e17610892565b5b6000610e2684828501610d91565b91505092915050565b600081905092915050565b6000610e4582610c6d565b610e4f8185610e2f565b9350610e5f818560208601610a47565b80840191505092915050565b6000610e778284610e3a565b915081905092915050565b7f4e487b7100000000000000000000000000000000000000000000000000000000600052602260045260246000fd5b60006002820490506001821680610ec957607f821691505b602082108103610edc57610edb610e82565b5b50919050565b60008190508160005260206000209050919050565b60006020601f8301049050919050565b600082821b905092915050565b600060088302610f447fffffffffffffffffffffffffffffffffffffffffffffffffffffffffffffffff82610f07565b610f4e8683610f07565b95508019841693508086168417925050509392505050565b6000819050919050565b6000819050919050565b6000610f95610f90610f8b84610f66565b610f70565b610f66565b9050919050565b6000819050919050565b610faf83610f7a565b610fc3610fbb82610f9c565b848454610f14565b825550505050565b600090565b610fd8610fcb565b610fe3818484610fa6565b505050565b5b8181101561100757610ffc600082610fd0565b600181019050610fe9565b5050565b601f82111561104c5761101d81610ee2565b61102684610ef7565b81016020851015611035578190505b61104961104185610ef7565b830182610fe8565b50505b505050565b600082821c905092915050565b600061106f60001984600802611051565b1980831691505092915050565b6000611088838361105e565b9150826002028217905092915050565b6110a182610a2b565b67ffffffffffffffff8111156110ba576110b96108b7565b5b6110c48254610eb1565b6110cf82828561100b565b600060209050601f83116001811461110257600084156110f0578287015190505b6110fa858261107c565b865550611162565b601f19841661111086610ee2565b60005b8281101561113857848901518255600182019150602085019450602081019050611113565b868310156111555784890151611151601f89168261105e565b8355505b6001600288020188555050505b505050505050565b60008190508160005260206000209050919050565b601f8211156111c0576111918161116a565b61119a84610ef7565b810160208510156111a9578190505b6111bd6111b585610ef7565b830182610fe8565b50505b505050565b6111ce82610c6d565b67ffffffffffffffff8111156111e7576111e66108b7565b5b6111f18254610eb1565b6111fc82828561117f565b600060209050601f83116001811461122f576000841561121d578287015190505b611227858261107c565b86555061128f565b601f19841661123d8661116a565b60005b8281101561126557848901518255600182019150602085019450602081019050611240565b86831015611282578489015161127e601f89168261105e565b8355505b6001600288020188555050505b505050505050565b7f4e487b7100000000000000000000000000000000000000000000000000000000600052603260045260246000fd5b600081546112d381610eb1565b6112dd8186610e2f565b945060018216600081146112f8576001811461130d57611340565b60ff1983168652811515820286019350611340565b6113168561116a565b60005b8381101561133857815481890152600182019150602081019050611319565b838801955050505b50505092915050565b600061135582846112c6565b915081905092915050565b7f4e487b7100000000000000000000000000000000000000000000000000000000600052601160045260246000fd5b600061139a82610f66565b91506113a583610f66565b92508282039050818111156113bd576113bc611360565b5b92915050565b6000815490506113d281610eb1565b9050919050565b60008190508160005260206000209050919050565b8181036113fc5750506114d4565b611405826113c3565b67ffffffffffffffff81111561141e5761141d6108b7565b5b6114288254610eb1565b61143382828561117f565b6000601f8311600181146114625760008415611450578287015490505b61145a858261107c565b8655506114cd565b601f198416611470876113d9565b965061147b8661116a565b60005b828110156114a35784890154825560018201915060018501945060208101905061147e565b868310156114c057848901546114bc601f89168261105e565b8355505b6001600288020188555050505b5050505050505b565b60006114e182610f66565b91507fffffffffffffffffffffffffffffffffffffffffffffffffffffffffffffffff820361151357611512611360565b5b600182019050919050565b7f4e487b7100000000000000000000000000000000000000000000000000000000600052603160045260246000fd5b600082825260208201905092915050565b600061156982610c6d565b611573818561154d565b9350611583818560208601610a47565b61158c816108a6565b840191505092915050565b600060408201905081810360008301526115b1818561155e565b905081810360208301526115c58184610a71565b90509392505050565b7f4f776e61626c653a206e6577206f776e657220697320746865207a65726f206160008201527f6464726573730000000000000000000000000000000000000000000000000000602082015250565b600061162a602683610a36565b9150611635826115ce565b604082019050919050565b600060208201905081810360008301526116598161161d565b9050919050565b7f4f776e61626c653a2063616c6c6572206973206e6f7420746865206f776e6572600082015250565b6000611696602083610a36565b91506116a182611660565b602082019050919050565b600060208201905081810360008301526116c581611689565b905091905056fea26469706673582212202a1981a88e42fade3e45852363a06c11bf0445829962b86294c2169a63f97a1d64736f6c63430008110033",
  "linkReferences": {},
  "deployedLinkReferences": {}
}